:020000040800F2
:10000000000002201D7100087D2400087F240008E4
:1000100081240008832400088524000800000000D3
:10002000000000000000000000000000872400081D
:1000300089240008000000008B2400088D2400089B
:100040006D7100086D7100086D7100086D71000818
:100050006D7100086D7100086D7100086D71000808
:100060006D7100086D7100086D7100086D710008F8
:100070006D7100086D7100086D7100086D710008E8
:100080006D7100086D7100086D7100086D710008D8
:100090006D7100086D7100086D7100086D710008C8
:1000A0006D7100086D7100086D7100086D710008B8
:1000B0006D7100086D7100086D7100086D710008A8
:1000C0006D7100086D7100086D7100086D71000898
:1000D0006D7100086D7100086D7100086D71000888
:1000E0006D7100086D710008000000006D7100085E
:1000F0006D7100086D7100086D7100086D71000868
:100100006D7100086D7100086D7100086D71000857
:100110006D7100086D7100086D7100086D71000847
:100120006D7100086D7100086D7100086D71000837
:100130006D7100086D7100086D7100086D71000827
:1001400000000000000000000000000000000000AF
:100150006D7100086D7100086D7100086D71000807
:100160006D7100086D7100086D7100086D710008F7
:100170006D7100086D7100086D7100086D710008E7
:100180006D7100086D7100086D7100086D710008D7
:100190006D7100086D7100086D7100086D710008C7
:1001A0006D7100086D7100086D7100086D710008B7
:1001B0006D7100086D7100086D7100086D710008A7
:1001C0006D7100086D7100086D7100086D71000897
:1001D0006D7100086D7100086D7100086D71000887
:1001E0006D7100086D7100086D7100086D71000877
:1001F0006D7100086D7100086D7100086D71000867
:100200006D7100086D7100086D7100086D71000856
:100210006D7100086D7100086D7100086D71000846
:100220006D7100086D7100086D710008000000001C
:100230006D7100086D710008000000006D7100080C
:100240006D7100086D7100086D7100086D71000816
:100250006D7100086D7100086D7100086D71000806
:100260006D7100086D7100086D7100086D710008F6
:100270006D7100086D7100086D71000800000000CC
:100280006D7100086D7100086D71000800000000BC
:08029000000000006D71000880
:1002980010B5054C237833B9044B13B10448AFF3B8
:1002A80000800123237010BDE02000200000000022
:1002B800BC75000808B5034B1BB103490348AFF3ED
:1002C800008008BD00000000E4200020BC75000884
:1002D80053B94AB9002908BF00281CBF4FF0FF31A5
:1002E8004FF0FF3000F074B9ADF1080C6DE904CEA1
:1002F80000F006F8DDF804E0DDE9022304B07047F9
:100308002DE9F047089D04468E46002B4DD18A42C0
:10031800944669D9B2FA82F252B101FA02F3C2F1F3
:10032800200120FA01F10CFA02FC41EA030E944084
:100338004FEA1C48210CBEFBF8F61FFA8CF708FBA5
:1003480016E341EA034306FB07F199420AD91CEB7D
:10035800030306F1FF3080F01F81994240F21C81AF
:10036800023E63445B1AA4B2B3FBF8F008FB1033F7
:1003780044EA034400FB07F7A7420AD91CEB04042C
:1003880000F1FF3380F00A81A74240F207816444FC
:10039800023840EA0640E41B00261DB1D440002381
:1003A800C5E900433146BDE8F0878B4209D9002DE5
:1003B80000F0EF800026C5E9000130463146BDE86F
:1003C800F087B3FA83F6002E4AD18B4202D38242D9
:1003D80000F2F980841A61EB030301209E46002D88
:1003E800E0D0C5E9004EDDE702B9FFDEB2FA82F2DD
:1003F800002A40F09280A1EB0C014FEA1C471FFA3B
:100408008CFE0126200CB1FBF7F307FB131140EA21
:1004180001410EFB03F0884208D91CEB010103F1EE
:10042800FF3802D2884200F2CB804346091AA4B2B0
:10043800B1FBF7F007FB101144EA01440EFB00FE84
:10044800A64508D91CEB040400F1FF3102D2A645E9
:1004580000F2BB800846A4EB0E0440EA03409CE788
:10046800C6F12007B34022FA07FC4CEA030C20FA35
:1004780007F401FA06F31C43F9404FEA1C4900FA55
:1004880006F3B1FBF9F8200C1FFA8CFE09FB1811D2
:1004980040EA014108FB0EF0884202FA06F20BD945
:1004A8001CEB010108F1FF3A80F08880884240F295
:1004B8008580A8F102086144091AA4B2B1FBF9F0D9
:1004C80009FB101144EA014100FB0EFE8E4508D9D4
:1004D8001CEB010100F1FF346CD28E456AD9023859
:1004E800614440EA0840A0FB0294A1EB0E01A1423E
:1004F800C846A64656D353D05DB1B3EB080261EBAC
:100508000E0101FA07F722FA06F3F1401F43C5E985
:10051800007100263146BDE8F087C2F12003D840BB
:100528000CFA02FC21FA03F3914001434FEA1C47FD
:100538001FFA8CFEB3FBF7F007FB10360B0C43EAEF
:10054800064300FB0EF69E4204FA02F408D91CEB9F
:10055800030300F1FF382FD29E422DD9023863449D
:100568009B1B89B2B3FBF7F607FB163341EA03413D
:1005780006FB0EF38B4208D91CEB010106F1FF388C
:1005880016D28B4214D9023E6144C91A46EA004683
:1005980038E72E46284605E70646E3E61846F8E615
:1005A8004B45A9D2B9EB020864EB0C0E0138A3E75E
:1005B8004646EAE7204694E74046D1E7D0467BE73F
:1005C800023B614432E7304609E76444023842E7B7
:1005D800704700BF08B572B6022001F07BFCFEE749
:1005E80000B5AFB004F0F0F800F016F900F076F9B5
:1005F80000F0F8FA00F034FA00F0C4F900F092F9CB
:1006080000F002FA00F094FA00F0ECF900F05CFA5D
:1006180000238DF8B03029932A9321AA2B92FF2228
:100628008DF8B320C3228DF8B1208DF8B2300322A3
:100638008DF87C208DF87D208DF87E208DF87F3018
:1006480002218DF880108DF881300E208DF86C0015
:1006580008208DF86D008DF86E008DF86F30202021
:100668008DF870008DF8710080208DF872008DF87B
:1006780073008DF874208DF875108DF87630092286
:100688008DF877200F228DF878208DF8B53040232B
:100698008DF86B3029A800F06DFF8DF8B50008B112
:1006A800FFF798FF01F098FC1FA800F0ECFD08B1D7
:1006B800FFF790FF1BA801F073FB08B1FFF78AFF53
:1006C800012001F007FC01F093FE012806D011215A
:1006D80001A801F0BDFE01E000F040FE01F05CFE63
:1006E8000028FBD00A2201210DF1B70001F042FEDB
:1006F8000028F3D19DF8B730013B212B00F28A8006
:1007080001A252F823F000BFE1060008990700088B
:100718009F0700081D0800081D0800081D0800089C
:100728001D0800081D0800081D0800081D0800080D
:100738001D0800081D0800081D0800081D080008FD
:100748001D0800081D0800081D0800081D080008ED
:100758001D0800081D0800081D0800081D080008DD
:100768001D0800081D0800081D0800081D080008CD
:100778001D0800081D0800081D0800081D080008BD
:100788001D080008BB0700081D080008E707000847
:1007980000F0E4FDA2E70A2201210DF1B60001F004
:1007A800E9FD20B99DF8B60001F032FD96E7FFF7A4
:1007B80011FF0A2201210DF1B60001F0DBFD60B93D
:1007C8009DF8B60001F0CCF98DF86B000A220121E2
:1007D8000DF16B0001F0C4FD80E7FFF7FBFE0A2274
:1007E80001210DF1B60001F0C5FD88B929A99DF8D0
:1007F800B60001F097F88DF8B5000A2201210DF135
:10080800B50001F0ADFD00283FF468AFFFF7E2FE48
:10081800FFF7E0FEFFF7DEFE00B59DB04C22002199
:1008280009A806F0D3FC2022002101A806F0CEFC7E
:10083800022003F077FF00230093264B9A6942F4C5
:1008480040429A619B6903F440430093224BDA6A61
:1008580042F00102DA62DB6A03F001030093009BB5
:100868001C4B9B6913F4005FFAD0012309934FF4E2
:1008780080330A93022312931393149350221592F0
:100888001693179318930C23199300231A931B9309
:1008980009A802F06DF8B8B93F2301930323029326
:1008A80000230393082304934023059306934FF4EE
:1008B80080620792089304210DEB010002F08CFC82
:1008C80028B91DB05DF804FBFFF784FEE4E7FFF7E5
:1008D80081FEF6E7004802580004005800B5B1B0A0
:1008E800BC22002101A806F071FC4FF48833019363
:1008F8000223029310220392049305930693C023C4
:1009080007934FF4803314934FF48053189301A83E
:1009180002F0FEFE10B931B05DF804FBFFF75AFE95
:10092800F9E7000008B51548154B0360A3F1786393
:10093800A3F57E23A3F24F234360002383600122A3
:10094800C260036143618361C361036204F058F9C3
:1009580050B90021094804F05FFB40B9002107485D
:1009680004F088FB30B908BDFFF734FEF1E7FFF764
:1009780031FEF3E7FFF72EFEF5E700BF4821002020
:100988000058004008B51548154B0360A3F178637B
:10099800A3F57D23A3F64F63436000238360012200
:1009A800C260036143618361C361036204F028F993
:1009B80050B90021094804F02FFB40B9002107482D
:1009C80004F058FB30B908BDFFF704FEF1E7FFF764
:1009D80001FEF3E7FFF7FEFDF5E700BFFC2000206E
:1009E80000540040064B074A1A6000225A609A6079
:1009F8004FF48041D9601A6102225A61704700BFE2
:100A0800942100200070005208B51348134B03606E
:100A18004FF480034360002383600722C2600361B0
:100A280043614FF080628261C36103624362836203
:100A3800C3624FF0804242638363C36303644364C9
:100A48008364C36403654365836505F0E1FD00B90C
:100A580008BDFFF7BFFDFBE710220020003800406B
:100A680008B51748174B03604FF461234360002310
:100A78008360C36003610C2242618361C3610362C6
:100A88004362836205F06CFC70B900210C4805F0E4
:100A9800E0FC60B900210A4805F000FD50B908489B
:100AA80005F0B8FC48B908BDFFF794FDEDE7FFF77E
:100AB80091FDEFE7FFF78EFDF1E7FFF78BFDF2E71A
:100AC800742300200014014008B51748174B036031
:100AD8004FF41653436000238360C36003610C2204
:100AE80042618361C36103624362836205F038FC3B
:100AF80070B900210C4805F0ACFC60B900210A4827
:100B080005F0CCFC50B9084805F084FC48B908BD8C
:100B1800FFF760FDEDE7FFF75DFDEFE7FFF75AFD33
:100B2800F1E7FFF757FDF2E7E4220020004C004010
:100B380000B58FB000230A930B930C930D93079382
:100B480008930993009301930293039304930593E5
:100B580006932248224A02600A224260836049F6CC
:100B68004042C2600361836104F0B2FC38BB4FF4B9
:100B780080530A930AA9194804F0FEFD10BB1748D0
:100B880004F0D6FC08BB00230793099307A9134870
:100B980004F08EFEE0B96023009348F6A043019369
:100BA800002302930493082269460C4804F03AFD96
:100BB80088B90A4801F06CFD0FB05DF804FBFFF737
:100BC80009FDD4E7FFF706FDD9E7FFF703FDDAE7EC
:100BD800FFF700FDDFE7FFF7FDFCEAE798220020BA
:100BE800000800402DE9F0418CB0002407940894D7
:100BF80009940A940B94754BD3F8E02042F0010253
:100C0800C3F8E020D3F8E02002F001020192019A33
:100C1800D3F8E02042F00202C3F8E020D3F8E02045
:100C280002F002020292029AD3F8E02042F0040293
:100C3800C3F8E020D3F8E02002F004020392039AFC
:100C4800D3F8E02042F00802C3F8E020D3F8E0200F
:100C580002F008020492049AD3F8E02042F010024D
:100C6800C3F8E020D3F8E02002F010020592059ABC
:100C7800D3F8E02042F08002C3F8E020D3F8E03057
:100C880003F080030693069B514D01224FF46061E7
:100C9800284603F040FD4FF460630793112308933F
:100CA80009940A9407A9284603F01EFC05F58065F7
:100CB80001224FF48051284603F02DFD4FF4805750
:100CC80007970126089609940A9407A9284603F06D
:100CD8000BFC05F5006522463946284603F01BFD46
:100CE8000797089609940A9407A9284603F0FCFB7D
:100CF80032464FF40051284603F00DFD4FF40058DA
:100D0800CDF81C80089609940A9407A9284603F090
:100D1800EBFB304F22464146384603F0FCFCCDF849
:100D28001C80089609940A9407A9384603F0DCFB4E
:100D380022464021284603F0EEFC402307930896FC
:100D480009940A9407A9284603F0CEFB8023079349
:100D58000894099407A9284603F0C6FB10230793B3
:100D6800089409941C4E07A9304603F0BDFB4FF4C4
:100D7800804307930894099407A9384603F0B4FB05
:100D88000823079308940223099307A9304603F020
:100D9800ABFB4FF4004307930894099407A928462E
:100DA80003F0A2FB4FF4007607960894099407A96C
:100DB800284603F099FB07960894099407A9284642
:100DC80003F092FB0CB0BDE8F08100BF004402586C
:100DD80000000258000802580010025840EA01209A
:100DE800704740EA012000B27047000000B587B0A4
:100DF80002468DF817100123029301930DF1170194
:100E08000091EC21044803F059FF10B907B05DF8D0
:100E180004FB0820FAE700BFFC20002008B5B62133
:100E28007E20FFF7E3FF08BD08B5B0217E20FFF75D
:100E3800DDFF08BD00B585B0029101910092012344
:100E48000246EC21044804F00FF810B905B05DF82B
:100E580004FB0820FAE700BFFC2000202DE9F04F32
:100E680091B000230A930B930C930D930E93ADF856
:100E78003C30049305930693079308938DF8243028
:100E880004AA15213120FFF7D5FF8346002840F03A
:100E9800EB809DF811109DF81000FFF79FFF009060
:100EA800ADF828009DF813109DF81200FFF796FF83
:100EB8000190ADF82A009DF914A08DF82CA09DF89A
:100EC80016109DF81500FFF78CFF0546ADF82E00AB
:100ED8009DF818109DF81700FFF783FF0446ADF83A
:100EE80030009DF919908DF832909DF91A808DF88F
:100EF80033809DF81C109DF81B00FFF76FFF0290D0
:100F0800ADF834009DF81E109DF81D00FFF766FF30
:100F18000390ADF836009DF91F708DF838709DF973
:100F280020608DF839609DF822109DF82100FFF7A8
:100F380058FFADF83A009DF923108DF83C109DF943
:100F480024208DF83D20DDED007AF8EE677A9FEDDC
:100F5800487A67EE877A474BC3ED007ADDED017A70
:100F6800F8EE677A9FED447A67EE877AC3ED017AE7
:100F780007EE90AAB8EEE77ADFED406A27EE267A08
:100F880083ED027AA5F5804507EE905AF8EEE77AE8
:100F9800C3ED037A9FED3A7A67EE877AC3ED037A59
:100FA800A4F5804407EE904AF8EEE77AC3ED047A98
:100FB8009FED347A67EE877AC3ED047A07EE909A4C
:100FC800B8EEE77ADFED307A27EE277A83ED057AF7
:100FD80007EE908AB8EEE77ADFED2C7A27EE277ACB
:100FE80083ED067ADDED027AB8EE677AF2EE007AE2
:100FF80027EE277A83ED077ADDED037AB8EE677A74
:10100800DFED237A27EE277A83ED087A07EE907AC8
:10101800B8EEE77ADFED1F7A27EE277A83ED097AB3
:1010280007EE906AB8EEE77ADFED1B7A27EE277AAB
:1010380083ED0A7A07EE900AF8EEE77A67EEA67A69
:10104800C3ED0B7A07EE901AF8EEE77A67EEA67A08
:10105800C3ED0C7A07EE902AF8EEE77A9FED0F7A47
:1010680067EE877AC3ED0D7A584611B0BDE8F08F68
:101078000000804304240020000080300000802706
:1010880000008035000000310000802F0000002D96
:101098000000803C0000803B000000380000001F7A
:1010A80010B52DED068B09EE900A354C94ED088AA3
:1010B80094ED0E0A28EE008A94ED099AF0EE000AE3
:1010C80006F08EF829EE009AD4ED0A8AF0EE080AA6
:1010D80094ED0E0A06F084F868EE808AD4ED077A5B
:1010E80037EE888A38EE098A38EE288AD4ED048AE1
:1010F80094ED0E0A68EE808A94ED05AAF0EE000AD7
:1011080006F06EF82AEE00AA94ED069AF0EE080AA8
:1011180094ED0E0A06F064F829EE009AF8EE699A42
:10112800D4ED037A77EEA88A78EE8A8A78EE898AEF
:1011380069EEA88AF0EE000AB0EE690A06F050F8E7
:10114800D4ED0B7A94ED0C9A94ED0E7A29EE079A69
:1011580077EE897A20EE279AF0EE080AB0EE690A4F
:1011680006F03EF8D4ED0D7A60EE277A77EE897AAC
:1011780038EE280A30EE270ABDEC068B10BD00BFFA
:101188000424002010B52DED028B00EE100AB8EEF5
:10119800400A0C4CD4ED007A30EE670A94ED018ACF
:1011A80028EE008AF0EE000A06F01AF8D4ED027A6A
:1011B80020EE270A30EE080A84ED0E0ABDEC028BF9
:1011C80010BD00BF04240020F8B5057890F801E0B0
:1011D80045EA0E1190F802C0C2784CEAC2040679BA
:1011E8004779134B1D7083F801E083F802C0DA7069
:1011F8001E715F71C9B21B20FFF7F8FD88B9E4B210
:1012080021461C20FFF7F2FD68B931461D20FFF783
:10121800EDFD50B939461F20FFF7E8FD10B1082051
:1012280000E00820F8BD0820FCE70820FAE700BF26
:101238004024002008B5024601210020FFF7FAFDEE
:1012480008BD30B583B005460023ADF804308DF8ED
:10125800063001AA03210720FFF7ECFD88B90446F0
:101268009DF806009DF805301B0243EA00439DF8EF
:1012780004001843FFF786FF85ED000A204603B0F7
:1012880030BD0824FAE710B582B0044600238DF873
:101298000730FF238DF80630002300930DF1070077
:1012A800FFF7C8FF18BB9DF80730602B18BF502BFD
:1012B8001FD1FFF7B3FDF8B90A2003F0C5FA0DF105
:1012C800060201210220FFF7B5FDB8B99DF80630E6
:1012D800B3B9FFF7C3FDA8B9FFF7A6FDA0B96846E3
:1012E800FFF7AFFF30B92046FFF76EFF02E0082096
:1012F80000E0052002B010BD0920FBE70820F9E74F
:101308000620F7E70720F5E70A20F3E770B582B073
:101318000546002300930023ADF804308DF806300D
:1013280001AA03210420FFF785FDA8B906469DF808
:1013380006309DF80540240244EA03449DF8043031
:101348001C436846FFF77DFF2046FFF7A9FE85EDA1
:10135800000A304602B070BD0826FAE700B583B02F
:1013680005238DF807300A2201210DF1070000F04E
:10137800F7FF03B05DF804FB030C0B70030A4B7016
:101388008870704730B583B004238DF807300D4D51
:1013980000224FF48051284603F0BDF90A230122A8
:1013A8000DF10701084805F0E7F9044601224FF45A
:1013B8008051284603F0AFF914B9204603B030BD78
:1013C8000824FAE7000402581022002030B583B040
:1013D80006238DF807300D4D00224FF48051284622
:1013E80003F099F90A2301220DF10701084805F0D5
:1013F800C3F9044601224FF48051284603F08BF9C3
:1014080014B9204603B030BD0824FAE70004025896
:1014180010220020F0B583B0044605238DF8033070
:10142800154E00224FF48051304603F074F9134FE3
:101438000A2301220DF10301384605F09DF90546FE
:101448008DF804000A23012204F10F01384605F043
:1014580005FD04468DF8050001224FF48051304601
:1014680003F059F92DB914B9204603B0F0BD08248A
:10147800FAE70824F8E700BF000402581022002009
:10148800F0B585B08DF8070050238DF8083001239A
:101498008DF80930234B1B78DBB3234E00224FF421
:1014A8008051304603F037F9204C0A23012202A963
:1014B800204605F061F905468DF80C0001224FF42D
:1014C8008051304603F027F900224FF4805130460E
:1014D80003F021F90A2301220DF10901204605F044
:1014E8004BF907468DF80D000A2301220DF107017B
:1014F800204605F041F904468DF80E0001224FF40C
:101508008051304603F007F93DB947B914B10824B2
:1015180000E00524204605B0F0BD0824FAE70824B9
:10152800F8E700BF462400200004025810220020DB
:1015380000B585B0FF238DF80F306846FFF76AFFC6
:1015480030B99DF80F3013F0010F05D0012000E0ED
:10155800012005B05DF804FB0020FAE7014B0122E9
:101568001A70704746240020014B00221A707047F9
:101578004624002038B50446407BDC2825D800F0F6
:101588003800A37B43EA0005237BD3B9FFF7E6FFC6
:101598002046FFF73FFFB8B9E37BFF2B17D0FFF7D3
:1015A800F1FEB0B92846FFF76BFFFFF7C1FF00282F
:1015B800FBD12046FFF72EFFE37BAB4204D00F2080
:1015C80002E0FFF7D1FF002038BD0A20FCE70F201A
:1015D800FAE70E20F8E70000F0B585B08DF807109F
:1015E80002238DF80B3002A94068FFF7C5FE204B97
:1015F8001B7893B3FFF7EAFE98BB1E4F00224FF407
:101608008051384603F087F81B4C0A2301220DF15C
:101618000B01204605F0B0F805468DF80C000A23AA
:10162800032202A9204605F0A7F806468DF80D000A
:10163800642301220DF10701204605F09DF80446B8
:101648008DF80E0001224FF48051384603F063F8FC
:101658004DB956B914B1082400E00524204605B058
:10166800F0BD0924FAE70824F8E70824F6E700BFE4
:101678004624002000040258102200202DE9F04FD3
:1016880083B00446AD238DF8033006688768694641
:101698004068FFF771FE5A4B1B78002B00F09880CA
:1016A8002368012B4BD0002B00F09480FFF78EFEAF
:1016B800002840F09480DFF84CA100224FF48051BC
:1016C800504603F028F8DFF840910A2301220DF173
:1016D8000301484605F050F805468DF804000A2332
:1016E80003226946484605F047F880468DF805000C
:1016F8000A2302223946484605F03EF881468DF80D
:10170800060001224FF48051504603F004F8002DE2
:1017180067D1B8F1000F66D1B9F1000F65D14FF06C
:10172800020A236853453DD90237FFF701FF68B124
:10173800B5425CD20135012003F086F8F5E7A368CD
:1017480019782046FFF748FF054644E0DFF8B4B0B3
:1017580000224FF48051584602F0DDFFDFF8A890D0
:101768000A2301220DF10301484605F005F88046D9
:101778008DF804000A2302223946484604F0FCFF8B
:1017880081468DF8050001224FF48051584602F039
:10179800C2FFB8F1000F2CD1B9F1000F2BD10AF11B
:1017A800020ABEE7FFF7C4FE0028FBD1FFF7EAFDF7
:1017B800054610BBFFF7BCFE0028FBD1236813F0D9
:1017C800010F08D079782046FFF706FF054602E0AA
:1017D800052500E00C25284603B0BDE8F08F092553
:1017E800F9E70825F7E70825F5E70825F3E70425CD
:1017F800F1E70B25EFE70B25EDE70D25EBE700BF3C
:101808004624002000040258102200202DE9F0414F
:1018180084B005460E460B238DF80B3000248DF856
:10182800074002A94068FFF7A7FD22464FF4805100
:10183800224802F070FF224F0A2301220DF10B010A
:10184800384604F099FF04468DF80C000A23032259
:1018580002A9384604F090FF80468DF80D000A234F
:1018680001220DF10701384604F086FF8DF80E00BD
:10187800E4B90746B8F1000F1AD1D8B9B4420BD26F
:10188800A9680A23012221440D4805F0E7FA8DF8DA
:101898000F0088B90134F1E701224FF4805107485D
:1018A80002F039FF384604B0BDE8F0810827F9E7AF
:1018B8000827F7E70827F5E70827F3E700040258A1
:1018C8001022002070B582B060238DF80730124BCB
:1018D8001B78DBB1FFF77AFD0446104E00224FF467
:1018E8008051304602F017FF0A2301220DF107014B
:1018F8000B4804F041FF054601224FF48051304661
:1019080002F009FF35B914B1012400E0052420468E
:1019180002B070BD0824FAE74624002000040258EB
:101928001022002070B5ADF5027D0C46460900F086
:101938001F050D604FF40072002101A805F046FC58
:1019480081A96068FFF718FD062E00F28780DFE89E
:1019580006F004262D31535867000A22032181A876
:1019680000F008FD00287BD19DF804229DF805327F
:101978001B0243EA02439DF806221343636029468B
:101988002046FFF743FF08B101250BE064222946F2
:10199800A06800F0E5FC054620B1072502E0FFF746
:1019A800DDFD002528460DF5027D70BDFFF7DCFD45
:1019B8000025F7E70A22032181A800F0DBFC0028B4
:1019C80050D19DF804229DF805321B0243EA0243D8
:1019D8009DF8062213436360002606E0A0680A22E9
:1019E8000121304400F0C6FC0136B542F6DC204641
:1019F800FFF744FE0546D5E72046FFF763FF054697
:101A0800D0E72046FFF706FD05460A22012104F12A
:101A18000F0000F0A5FC38BB002DC3D00825C1E796
:101A280001ABA3600023636009E064224FF40071F6
:101A380001A800F095FC636803F5007363606368B0
:101A4800B3F5002F08D24FF400712046FFF7DEFEF1
:101A58000028EAD01025A5E70025A3E70325A1E77C
:101A680007259FE707259DE707259BE708B5102170
:101A7800024802F049FE00B1012008BD00100258DA
:101A880008B54FF48041034802F03EFE00B1012042
:101A980008BD00BF0008025808B58021024802F0BE
:101AA80033FE00B1012008BD000C025810B5FFF745
:101AB800F3FF60B90024FFF7D9FF08B144F002042E
:101AC800FFF7DEFF08B144F00404204610BD0124EE
:101AD800F1E7000010B5FFF7DFFF08B9452010BD9A
:101AE800FFF7C4FF08B94620F9E70A4C0122402154
:101AF800204602F010FE0A2002F0A6FE0022402135
:101B0800204602F008FEFFF7B1FF08B94120E6E7DA
:101B18004720E4E7000C025810B5FFF7BDFF08B9ED
:101B2800452010BDFFF7ACFF08B94820F9E70B4C7A
:101B380001224FF40051204602F0EDFD0A2002F088
:101B480083FE00224FF40051204602F0E4FDFFF727
:101B580097FF08B94120E4E74920E2E70008025866
:101B680008B5032805D0042806D0022807D04A2043
:101B780008BDFFF7AFFFFBE7FFF7CEFFF8E7FFF77A
:101B880095FFF5E700B585B04FF0FF33029392B2A9
:101B98000192009101230246D021044803F08EF8F7
:101BA80010B905B05DF804FB0520FAE748210020CC
:101BB80000B587B002468DF817100A230293012357
:101BC80001930DF117010091D021044803F076F834
:101BD80010B907B05DF804FB0520FAE7482100209A
:101BE80000B587B002468DF817100A230293012327
:101BF80001930DF1170100912021044803F05EF8CC
:101C080010B907B05DF804FB0520FAE74821002069
:101C180000B585B04FF0FF33029301920091012384
:101C28000246D021044803F01FF910B905B05DF849
:101C380004FB0720FAE700BF4821002000B585B063
:101C48000A230293019200910123024620210448AD
:101C580003F00AF910B905B05DF804FB0620FAE7AD
:101C68004821002070B582B0044600238DF8073063
:101C7800C17A0139C1F38706017B0139CDB201214F
:101C88004B20FFF7ADFF08B102B070BD052002F090
:101C9800DBFD01220DF107014020FFF7CFFF0028EF
:101CA800F2D19DF80730322B01D00A20ECE7A17A57
:101CB800E37819434C20FFF793FF0028E4D131461D
:101CC8005120FFF78DFF0028DED129465220FFF76B
:101CD80087FFD9E710B582B00446062269460C2072
:101CE800FFF796FFA0B99DF801309DF8001041EA72
:101CF80003219DF803309DF8022042EA03229DF853
:101D080005C09DF8043043EA0C2321806280A3803B
:101D180002B010BD10B582B00446062269461220F2
:101D2800FFF776FFA0B99DF801309DF8001041EA51
:101D380003219DF803309DF8022042EA03229DF812
:101D480005C09DF8043043EA0C23E18022816381B9
:101D580002B010BD10B582B0044606226946422082
:101D6800FFF76CFF04280CD09DF8011049019DF87D
:101D7800032052019DF80530DB01A181E281238215
:101D8800002002B010BD10B5044601220146002013
:101D9800FFF73EFF2378242B00D0032010BD00005E
:101DA80070B584B0044600238DF80F308DF80E30DE
:101DB8004278017986790A4316438178427911433A
:101DC80041F080050093019302930DF10F00FFF796
:101DD800DAFF08B104B070BD00217C20FFF7E8FEEF
:101DE800002850D1012002F02FFD00215920FFF7D3
:101DF800DFFE002849D14FF4005230495E20FFF73A
:101E0800C1FE002843D101215920FFF7D1FE002847
:101E18003FD1962002F018FD01220DF10E0121207C
:101E2800FFF7F6FEB8BB9DF80E3013F0010F34D063
:101E380021787D20FFF7BCFE88BB31464020FFF7A4
:101E4800B7FE70BB217A4120FFF7B2FE58BB294686
:101E58004220FFF7ADFE40BB617A4320FFF7A8FEA2
:101E680028BB02217C20FFF7A3FE10BB0C22694689
:101E78001046FFF7CDFEF0B92046FFF7F3FE002825
:101E8800A8D00B20A6E70820A4E70820A2E708208E
:101E9800A0E708209EE708209CE708209AE7092089
:101EA80098E7092096E7092094E7092092E7092096
:101EB80090E709208EE709208CE700BF000000208A
:101EC80008B501224FF46061014802F024FC08BD06
:101ED8000000025810B50446FFF7F2FF601E0628FE
:101EE8000BD8DFE800F0040B121920272E0000227F
:101EF8004FF48061164802F00EFC10BD00224FF42A
:101F08000061134802F007FCF7E700224FF4007164
:101F18000F4802F000FCF0E700224FF4C0610C48C3
:101F280002F0F9FBE9E700224FF42061084802F0CB
:101F3800F2FBE2E700224FF44061054802F0EBFBB8
:101F4800DBE700224FF46061014802F0E4FBD4E7CC
:101F58000000025830B4064C04EBC10CDCF8045005
:101F68001D6014F831301844106030BC704700BF51
:101F7800482400202DE9F04782B082460F461646D5
:101F88001D46DDF8288091F80090002488F800406C
:101F980001E00134E4B2B4421AD26B4601AA4946C0
:101FA8005046FFF7D7FF009A0199284605F000F937
:101FB8009DF800C098F800309C4488F800C0731E53
:101FC8009C42E6D097F80190009B1D440137E0E75A
:101FD80002B0BDE8F0870000164B00221A700222FA
:101FE8001A720421197406201876082083F8200034
:101FF8000A2083F828000C2083F830000E2083F88C
:102008003800102083F84000122083F8480014207C
:1020180083F85000182083F858005A60DA605A6133
:10202800DA615A62DA625A63DA635A64DA645965C1
:10203800D9657047482400202DE9F0410446FFF790
:1020480049FE06462046FFF765FE07462046FFF78D
:1020580081FE80460023638204F11800FFF7F1F83F
:10206800054604F11400FFF751F95EB967B9B8F1F4
:10207800000F0BD1284310F0FF0001D1BDE8F0811B
:102088000A20FBE70720F9E70820F7E70920F5E72A
:102098002DE9F84F80460E4617460D780024A346D2
:1020A800A246A1466BE0B9F1000F65D14046FFF7A3
:1020B80011FE002840F09C804FF001095CE0B9F166
:1020C800000F59D14046FFF705FE002840F09280E6
:1020D8004FF0010950E0B9F1000F4DD14046FFF72C
:1020E800F9FD002840F088804FF0010944E0BAF17A
:1020F800000F41D14046FFF70DFE00287ED14FF07A
:10210800010A39E0BAF1000F36D14046FFF702FE66
:10211800002875D14FF0010A2EE0BAF1000F2BD13B
:102128004046FFF7F7FD00286CD14FF0010A23E085
:10213800BBF1000F20D14046FFF70CFE002863D109
:102148004FF0010B18E0BBF1000F15D14046FFF727
:1021580001FE00285AD14FF0010B0DE0BBF1000F32
:102168000AD14046FFF7F6FD00283CD14FF0010B9D
:1021780002E00023A8F8123016F8015F0134A742E4
:1021880030DD0B2D32D801A353F825F0AF2000081D
:10219800C7200008DF200008F72000080D210008EC
:1021A80023210008392100084F2100086521000873
:1021B8007B210008C5210008DD21000808F118006E
:1021C800FFF73FF878B908F11400FFF79FF80028E7
:1021D800D2D008E008F11800FFF733F80028CBD078
:1021E8000A2500E000252846BDE8F88F0C25FAE707
:1021F8000725F8E70725F6E70725F4E70825F2E7B6
:102208000825F0E70825EEE70825ECE70825EAE7C2
:1022180030B595B01C238DF8173000238DF8163093
:102228008DF80F3006930793089309930A930B933D
:102238000C930D930E930F93109311931293139382
:1022480004938DF81430012859D0022877D10A2236
:1022580001210DF1160000F08DF8002873D1282215
:102268009DF8161004A800F085F800286DD10A2200
:1022780001210DF10F0000F07DF80446002866D119
:102288009DF80F30F32B64D19DF80F30742B57D085
:102298000A2201210DF10F0000F06CF800285AD134
:1022A8009DF80F30512B05D0742BEDD0442B1BD04B
:1022B8000F2445E09DF8162004A90DA8FFF7E8FEB5
:1022C8000446002849D10DF11703009306AB9DF889
:1022D800162004A90DA8FFF74DFE28229DF8171017
:1022E80006A800F03DF8CFE79DF80F30EF2BCBD0D4
:1022F8000A2201210DF10F0000F03CF8F4E70A2250
:1023080001210DF1170000F02BF80DA8FFF794FE3E
:1023180005460DF1180E0DF1340CBCE80F00AEE8BF
:102328000F009CE807008EE807002C460DB1112429
:1023380006E028221C2106A800F012F800E001247B
:10234800204615B030BD0B24FAE70B24F8E70B2420
:10235800F6E70D24F4E70B24F2E70E24F0E700007B
:1023680008B513468AB20146014803F0BEFE08BD0F
:102378007423002008B513468AB20146054803F0C5
:1023880021FF034610B1032802D10223184608BDD5
:102398000123FBE77423002008B54FF400710348BC
:1023A80002F0B2F900B1012008BD00BF000C0258CC
:1023B80008B513468AB20146044803F096FE03287E
:1023C80001D0002008BD0420FCE700BFE422002063
:1023D80008B513468AB20146044803F0F3FE032801
:1023E80001D0002008BD0420FCE700BFE422002043
:1023F80070B54FF47A721C211248FFF7D9FF0446D2
:10240800C82002F021FA4FF47A721C210E48FFF717
:10241800CFFF0646C82002F017FA4FF47A722C2133
:102428000A48FFF7C5FF0546C82002F00DFA3443F5
:1024380014F0FF0F02D115B1012500E0012528464F
:1024480070BD00BF1C20002000200020402000207C
:1024580038B504460D460A2208210548FFF7A8FFAB
:102468004FF47A7229462046FFF7B2FF38BD00BF05
:1024780038200020FEE7FEE7FEE7FEE7FEE77047AC
:102488007047704708B502F0CDF908BD82B0074B18
:10249800D3F8F42042F00202C3F8F420D3F8F43061
:1024A80003F002030193019B02B0704700440258F5
:1024B80010B5B8B004460021339134913591369166
:1024C8003791BC2204A804F081FE2368344A934261
:1024D80004D0344A934231D038B010BD0823049355
:1024E80004A801F015F930BB2F4CD4F8E03043F0C4
:1024F8000203C4F8E030D4F8E03003F0020300939C
:10250800009BC023339312233493002335933693CF
:102518000423379333A9254801F0E6FFD4F8E830BF
:1025280043F40013C4F8E830D4F8E83003F4001397
:102538000193019BD0E7FEF74DF8D5E708230493F4
:1025480004A801F0E5F838BB174CD4F8E03043F0A4
:102558000203C4F8E030D4F8E03003F00203029339
:10256800029B4FF440633393122334930023359333
:1025780036930423379333A90C4801F0B5FFD4F8F8
:10258800E83043F48003C4F8E830D4F8E83003F4C2
:1025980080030393039B9FE7FEF71CF8D4E700BF73
:1025A80000540040005800400044025800040258FB
:1025B80010B5B6B00446002131913291339134916F
:1025C8003591BC2202A804F001FE2268204B9A42F1
:1025D80001D036B010BD4FF480520292022303930B
:1025E800102104910421059106930793C0230893B1
:1025F800199202A801F08CF838BB164BD3F8E820E2
:1026080042F48042C3F8E820D3F8E82002F480427C
:102618000092009AD3F8E02042F00202C3F8E020CA
:10262800D3F8E03003F002030193019B4FF46043B9
:102638003193022332930023339334930523359344
:1026480031A9054801F050FFC3E7FDF7C3FFD4E700
:1026580000380040004402580004025802680A4B3F
:102668009A4200D0704782B0084BD3F8E82042F075
:102678000402C3F8E820D3F8E83003F00403019318
:10268800019B02B0704700BF000800400044025898
:1026980000B587B000230193029303930493059335
:1026A80002680F4B9A4202D007B05DF804FB0D4B4D
:1026B800D3F8E02042F00802C3F8E020D3F8E03075
:1026C80003F008030093009B4FF480430193022317
:1026D8000293059301A9044801F006FFE4E700BF4F
:1026E8000008004000440258000C025810B5B8B069
:1026F8000446002133913491359136913791BC22AB
:1027080004A804F063FD2368334A934204D0334A93
:10271800934231D038B010BD0223049304A800F0CE
:10272800F7FF30BB2E4BD3F8E82042F40022C3F861
:10273800E820D3F8E82002F400220092009AD3F8A7
:10274800E02042F00102C3F8E020D3F8E03003F0C3
:1027580001030193019B0323339302233493002342
:10276800359336930823379333A91E4801F0BCFEEE
:10277800D0E7FDF72FFFD5E70123049304A800F065
:10278800C7FF30BB164BD3F8F02042F02002C3F845
:10279800F020D3F8F02002F020020292029AD3F837
:1027A800E02042F00402C3F8E020D3F8E03003F060
:1027B80004030393039BC02333930223349300231E
:1027C800359336930723379333A9074801F08CFED6
:1027D800A0E7FDF7FFFED5E7004C004000140140DC
:1027E800004402580000025800080258274AD2F84C
:1027F800883043F47003C2F88830254B1B6803F017
:102808000F03062B06D8224A136823F00F0343F060
:10281800070313601F4B1A6842F001021A60002276
:102828001A6119681C4A0A401A60194B1B6813F090
:10283800080F06D0164A136823F00F0343F0070366
:102848001360144B00229A61DA611A621349996283
:102858001349D962134919635A639963DA6319648E
:102868005A64196821F4802119601A660E4B1A6897
:102878000E4B1340B3F1005F03D20D4B0122C3F896
:1028880008210C4B43F2D2021A60704700ED00E0B9
:1028980000200052004402587FEDF6EA00020202CE
:1028A8000000FF01800201010010005C0000FFFF32
:1028B80000800051004000520649CB6823F4E063D1
:1028C8001B041B0C000200F4E0600343024A1A4395
:1028D800CA60704700ED00E00000FA0500B5174B2C
:1028E800DB68C3F30223C3F1070CBCF1040F28BF54
:1028F8004FF0040C03F1040EBEF1060F14D9033B8C
:102908004FF0FF3E0EFA0CFC21EA0C0199400EFA3A
:1029180003F322EA03031943002807DB0901C9B2BC
:10292800074B19545DF804FB0023E9E700F00F009A
:102938000901C9B2034B1954F4E700BF00ED00E0E8
:1029480000E400E014ED00E00138B0F1807F0BD224
:102958004FF0E0235861054AF02182F82310002047
:10296800986107221A6170470120704700ED00E066
:10297800002800F0188338B50446036813F0010FE7
:1029880025D0944A136903F03803926A102B15D0A6
:10299800182B0FD06368B3F5803F3FD0002B53D17D
:1029A8008C4B1A6822F480321A601A6822F480224A
:1029B8001A6038E002F00302022AEBD1854B1B684B
:1029C80013F4003F03D06368002B00F0EE82236805
:1029D80013F0020F00F0A1807E4A1369926A13F087
:1029E80038035AD0182B55D0E368002B00F0DE804E
:1029F80078490A6822F0190213430B6001F01EFFA0
:102A08000546744B1B6813F0040F40F0AD8001F0CD
:102A180015FF401B0228F4D90320CDE26D4A136844
:102A280043F48033136063682BB301F007FF054656
:102A3800684B1B6813F4003FC9D101F0FFFE401B2F
:102A48006428F5D90320B7E2B3F5A02F09D0614B6C
:102A58001A6822F480321A601A6822F480221A60F6
:102A6800E1E75C4B1A6842F480221A601A6842F463
:102A780080321A60D7E701F0E1FE0546554B1B6826
:102A880013F4003FA3D001F0D9FE401B6428F5D908
:102A9800032091E212F0030FA6D14E4B1B6813F0EE
:102AA800040F03D0E368002B00F08182494A1368C1
:102AB80023F01903E1680B43136001F0BFFE0546DC
:102AC800444B1B6813F0040F06D101F0B7FE401BFE
:102AD8000228F5D903206FE201F0CAFE41F2030390
:102AE800984212D82269402A07D03A494B6823F401
:102AF8007C3343EA02334B600FE0364A536823F4D1
:102B08007C3343F40033536007E0324A536823F0C0
:102B1800FE43216943EA01635360236813F0100FF1
:102B280000F088802B4A136903F03803926A082B57
:102B380056D0182B50D0E369002B00F0B880254AF6
:102B4800136843F08003136001F078FE0546214BBB
:102B58001B6813F4807F40F0888001F06FFE401BF3
:102B68000228F4D9032027E201F082FE41F2030390
:102B7800984212D82269402A07D016494B6823F494
:102B88007C3343EA02334B60C7E7124A536823F4A5
:102B98007C3343F400335360BFE70E4A536823F095
:102BA800FE43216943EA01635360B6E7094A1368A3
:102BB80023F00103136001F041FE0546054B1B6835
:102BC80013F0040FA9D001F039FE401B0228F5D9F3
:102BD8000320F1E10044025802F00302012AAAD1BD
:102BE800A14B1B6813F4807F03D0E369802B40F06E
:102BF800E08101F03DFE41F20303984212D8226AB7
:102C0800202A07D098494B6823F0F84343EA8263A7
:102C18004B600FE0944A536823F0F84343F0804335
:102C2800536007E0904AD36823F07C53216A43EA53
:102C38000163D360236813F0080F60D06369002B29
:102C480049D0894A536F43F00103536701F0F6FDF9
:102C58000546854B5B6F13F0020F50D101F0EEFD76
:102C6800401B0228F5D90320A6E101F001FE41F23C
:102C78000303984212D8226A202A07D07A494B685F
:102C880023F0F84343EA82634B60D3E7764A5368FC
:102C980023F0F84343F080435360CBE7724AD3688C
:102CA80023F07C53216A43EA0163D360C2E76E4A8A
:102CB800136823F08003136001F0C0FD05466A4BDA
:102CC8001B6813F4807FB5D001F0B8FD401B0228C3
:102CD800F5D9032070E1644A536F23F00103536769
:102CE80001F0ACFD0546604B5B6F13F0020F06D098
:102CF80001F0A4FD401B0228F5D903205CE12368FC
:102D080013F0200F29D0A3699BB1574A136843F4E5
:102D18008053136001F092FD0546534B1B6813F472
:102D2800005F1AD101F08AFD401B0228F5D9032063
:102D380042E14D4A136823F48053136001F07EFD8D
:102D48000546494B1B6813F4005F06D001F076FD79
:102D5800401B0228F5D903202EE1236813F0040F45
:102D680021D1636A002B00F026813F4A126902F0E4
:102D78003802182A00F0EE80022B79D03A4A1368FC
:102D880023F08073136001F059FD0446364B1B682D
:102D980013F0007F00F0DC8001F050FD001B0228DA
:102DA800F4D9032008E1314A136843F480731360AF
:102DB80001F044FD05462D4B1B6813F4807F06D1B6
:102DC80001F03CFD401B6428F5D90320F4E0A3681A
:102DD800012B0AD00BBB244B1A6F22F001021A6791
:102DE8001A6F22F004021A6704E01F4A136F43F0B7
:102DF80001031367A36833B301F020FD05461A4B9E
:102E08001B6F13F0020FACD101F018FD401B41F20B
:102E180088339842F3D90320CEE0052B09D0124B12
:102E28001A6F22F001021A671A6F22F004021A6759
:102E3800E0E70D4B1A6F42F004021A671A6F42F06E
:102E480001021A67D6E701F0F9FC0546064B1B6F2D
:102E580013F0020F85D001F0F1FC401B41F28833DA
:102E68009842F3D90320A7E00044025800480258CA
:102E7800594A136823F08073136001F0DFFC05469C
:102E8800554B1B6813F0007F06D001F0D7FC401BA0
:102E98000228F5D903208FE04F4B996A4F4A0A4020
:102EA800A16AE06A41EA00110A439A62226B013A78
:102EB800C2F30802616B0139490289B20A43A16B66
:102EC8000139090401F4FE010A43E16B01390906DD
:102ED80001F0FE410A431A63DA6A22F00102DA625B
:102EE800596B3F4A0A40A16C42EAC1025A63DA6A46
:102EF80022F00C02216C0A43DA62DA6A22F002023A
:102F0800616C0A43DA62DA6A42F48032DA62DA6AB7
:102F180042F40032DA62DA6A42F48022DA62DA6A69
:102F280042F00102DA621A6842F080721A6001F017
:102F380085FC0446284B1B6813F0007F06D101F07E
:102F48007DFC001B0228F5D9032035E0002033E082
:102F5800002031E0204A916A106B012B2DD001F03E
:102F68000303A26A93422AD1C1F30511E36A994285
:102F780027D1C0F30802236B013B9A4223D1C0F347
:102F88004622636B013B9A421FD1C0F30642A36BF2
:102F9800013B9A421BD1C0F30660E36B013B9842A8
:102FA80017D1002008E001207047012004E001202B
:102FB80002E0012000E0002038BD0120FCE70120EC
:102FC800FAE70120F8E70120F6E70120F4E70120FD
:102FD800F2E70120F0E700BF004402580CFCFFFFB5
:102FE8000700FFFF744B1B6903F03803102B00F038
:102FF800DE80182B10D00BB1704870476E4B1B68E1
:1030080013F0200F00F0D5806B4B1868C0F3C10097
:103018006B4B23FA00F0704710B4674A916A01F0CD
:103028000301946AC4F30510D36A03F0010C536BCF
:10303800C3F3CC030CFB03F307EE903AF8EE677A80
:1030480014F47C7F00F09380012965D0022900F0F8
:103058009180E1B107EE100AF8EE476A9FED596AD0
:1030680086EE267A544B1B6BC3F3080306EE903AA0
:10307800F8EE666A9FED546A67EE867A76EEA77A6E
:10308800F7EE006A77EEA67A27EE277A60E01368F3
:1030980013F0200F23D011461268C2F3C102484B27
:1030A800D34007EE103AF8EE476A07EE100AB8EE7A
:1030B800476A86EE867A0B6BC3F3080306EE903AEE
:1030C800F8EE666A9FED406A67EE867A76EEA77A32
:1030D800F7EE006A77EEA67A27EE277A38E007EE51
:1030E800100AF8EE476A9FED396A86EE267A324B67
:1030F8001B6BC3F3080306EE903AF8EE666A9FED81
:10310800326A67EE867A76EEA77AF7EE006A77EE8D
:10311800A67A27EE277A1BE007EE100AF8EE476A30
:103128009FED286A86EE267A234B1B6BC3F30803B0
:1031380006EE903AF8EE666A9FED236A67EE867AA5
:1031480076EEA77AF7EE006A77EEA67A27EE277A68
:10315800194B1B6BC3F34623013307EE903AF8EE85
:10316800677AC7EE276AFCEEE67A17EE900A5DF8F2
:10317800044B704707EE100AF8EE476A9FED146A91
:1031880086EE267A0C4B1B6BC3F3080306EE903AC7
:10319800F8EE666A9FED0C6A67EE867A76EEA77A95
:1031A800F7EE006A77EEA67A27EE277AD0E7094885
:1031B80070470348704700BF0044025800093D00AB
:1031C8000090D0030024744A000000390024744C95
:1031D800001BB74B00366E01002800F0328170B535
:1031E8000D4604469B4B1B6803F00F038B420BD222
:1031F800984A136823F00F030B431360136803F016
:103208000F038B4240F01F81236813F0040F0CD08A
:103218002269914B9B6903F070039A4205D98E4944
:103228008B6923F070031A438A61236813F0080F2F
:103238000CD06269884BDB6903F070039A4205D9A8
:103248008549CB6923F070031A43CA61236813F0D8
:10325800100F0CD0A269804BDB6903F4E0639A423B
:1032680005D97D49CB6923F4E0631A43CA61236811
:1032780013F0200F0CD0E269774B1B6A03F0700340
:103288009A4205D974490B6A23F070031A430A62FB
:10329800236813F0020F0CD0E2686F4B9B6903F0B0
:1032A8000F039A4205D96C498B6923F00F031A431F
:1032B8008A61236813F0010F41D0674A936923F4A8
:1032C8007063A1680B4393616368022B0AD0032BD8
:1032D80027D0012B2CD0604A126812F0040F06D1B7
:1032E8000120ADE0126812F4003F00F0AE805A49A8
:1032F8000A6922F0070213430B6101F09FFA0646A0
:10330800554B1B6903F038036268B3EBC20F16D044
:1033180001F094FA801B41F288339842F0D90320D7
:103328008EE04D4A126812F0007FE0D1012087E05C
:10333800494A126812F4807FD9D1012080E02368BD
:1033480013F0020F0CD0E268434B9B6903F00F03A4
:103358009A4205D240498B6923F00F031A438A61C8
:103368003C4B1B6803F00F03AB420AD9394A136878
:1033780023F00F032B431360136803F00F03AB42D2
:1033880065D1236813F0040F0CD02269324B9B6976
:1033980003F070039A4205D22F498B6923F070031A
:1033A8001A438A61236813F0080F0CD062692A4B0C
:1033B800DB6903F070039A4205D22749CB6923F0F1
:1033C80070031A43CA61236813F0100F0CD0A26966
:1033D800214BDB6903F4E0639A4205D21E49CB69AD
:1033E80023F4E0631A43CA61236813F0200F0CD05A
:1033F800E269194B1B6A03F070039A4205D2164919
:103408000B6A23F070031A430A62FFF7EBFD1249B7
:103418008B69C3F30323114AD35C03F01F03D8401D
:103428008B6903F00F03D35C03F01F0320FA03F347
:103438000B4A13600B4B18600B4B186801F09CF992
:1034480070BD012070470120FAE70120F8E701204C
:10345800F6E700BF0020005200440258D875000863
:10346800702000206C2000207820002008B5FFF78D
:10347800B9FD0B4A9369C3F303230A49CB5C03F0F4
:103488001F0320FA03F3926902F00F02885C00F030
:103498001F0023FA00F0044A1060044A136008BDB4
:1034A80000440258D8750008702000206C200020C5
:1034B80008B5FFF7DBFF054BDB69C3F30213044ACA
:1034C800D35C03F01F03D84008BD00BF0044025876
:1034D800D875000808B5FFF7C9FF054BDB69C3F3CA
:1034E8000223044AD35C03F01F03D84008BD00BF81
:1034F80000440258D8750008404B9B6A03F0030348
:10350800032B79D070B505460E463C4A136823F064
:103518008063136001F092F90446384B1B6813F07E
:10352800006F06D001F08AF9031B022BF5D903209E
:1035380070BD324B9A6A22F47C32296842EA013221
:103548009A626A68013AC2F30802A9680139490215
:1035580089B20A43E9680139090401F4FE010A4302
:1035680029690139090601F0FE410A439A63DA6ABA
:1035780022F0C00269690A43DA62DA6A22F020029C
:10358800A9690A43DA62DA6A22F01002DA62D96BB0
:103598001B4A0A40E96942EAC102DA63DA6A42F080
:1035A8001002DA62C6B91A46DB6A43F40023D36212
:1035B800124A136843F08063136001F03FF9044630
:1035C8000E4B1B6813F0006F14D101F037F9001B84
:1035D8000228F5D90320ABE7012E05D0074AD36AA4
:1035E80043F40013D362E3E7044AD36A43F4801335
:1035F800D362DDE700209BE70120704700440258B2
:103608000700FFFF404B9B6A03F00303032B79D0AD
:1036180070B505460E463C4A136823F08053136084
:1036280001F00CF90446384B1B6813F0005F06D014
:1036380001F004F9031B022BF5D9032070BD324BAE
:103648009A6A22F07C72296842EA01529A626A6890
:10365800013AC2F30802A9680139490289B20A434A
:10366800E9680139090401F4FE010A4329690139AD
:10367800090601F0FE410A431A64DA6A22F440623C
:1036880069690A43DA62DA6A22F40072A9690A43AC
:10369800DA62DA6A22F48072DA62596C1B4A0A40EA
:1036A800E96942EAC1025A64DA6A42F48072DA626B
:1036B800C6B91A46DB6A43F48003D362124A136818
:1036C80043F08053136001F0B9F804460E4B1B68B1
:1036D80013F0005F14D101F0B1F8001B0228F5D9EE
:1036E8000320ABE7012E05D0074AD36A43F0807365
:1036F800D362E3E7044AD36A43F40003D362DDE705
:1037080000209BE701207047004402580700FFFF94
:10371800F8B50446036813F0006F30D0436EB3F574
:10372800001F26D00ED8EBB1B3F5801F07D10221B8
:103738000430FFF7E1FE054645B12E4621E001269B
:1037480035461EE0B3F5401F09D10025954A136D93
:1037580023F44013616E0B431365002611E0012624
:1037680035460EE08F4AD36A43F40033D36200250E
:10377800ECE702212430FFF745FF0546DCE7002689
:103788003546236813F4807F14D0636D042B30D83A
:10379800DFE803F0032228080800824AD36A43F4CA
:1037A8000033D36245BB7F4A136D23F00703616D75
:1037B8000B431365236813F4007F2FD0A36D802B70
:1037C80049D01ED8002B40D0402B17D10021201DF6
:1037D800FFF792FE054619E00021201DFFF78CFE39
:1037E8000546DFE7002104F12400FFF70BFF05463B
:1037F800D8E701263546DDE72E46DBE701263546C4
:103808000CE0C02B02D0B3F5807F1BD155BB654AB5
:10381800136D23F4E073A16D0B431365236813F450
:10382800806F45D0D4F8A430B3F5800F38D01ED8B7
:1038380083B3B3F5001F17D10021201DFFF75CFEED
:1038480005461AE001263546E8E7564AD36A43F4A6
:103858000033D362DAE7002104F12400FFF7D2FE37
:103868000546D3E72E46D9E70126354620E0B3F5CD
:10387800C00F02D0B3F5000F09D1C5B9494A936DFD
:1038880023F46003D4F8A4100B43936510E00126D9
:1038980035460DE0434AD36A43F40033D362ECE77C
:1038A800002104F12400FFF7ADFE0546E5E72E46AA
:1038B800236813F4006F23D0D4F8A830B3F1007F45
:1038C80041D00DD8002B38D0B3F1807F05D100212D
:1038D800201DFFF711FE054608E0012635460FE0DA
:1038E800B3F1407F02D0B3F1806F23D1002D31D1E5
:1038F8002C4A936D23F0E063D4F8A8100B4393652A
:10390800236813F0007F2ED0A36C202B3FD026D83D
:1039180033B1102B20D1234AD36A43F40033D36246
:10392800002D3AD11F4AD36C23F03003A16C0B430E
:10393800D36418E001263546E2E71A4AD36A43F40D
:103948000033D362D2E7002104F12400FFF75AFEC6
:103958000546CBE72E46D3E70126354603E0302B54
:10396800DED001263546236813F4805F2BD0E36D43
:10397800B3F5005F4CD017D8002B43D0B3F5805F68
:103988000DD10021201DFFF7B7FD054612E00221E9
:10399800201DFFF7B1FD0546C2E72E46E3E70126E5
:1039A800354610E000440258B3F5405F02D0B3F545
:1039B800804F24D1002D32D1754A136D23F4E04392
:1039C800E16D0B431365236813F4005F37D0236E52
:1039D800B3F5003F51D027D83BB1B3F5803F20D194
:1039E8000121201DFFF788FD0546002D4CD1684AAE
:1039F800136D23F4E023216E0B4313651FE00126AA
:103A08003546E0E7624AD36A43F40033D362D1E72C
:103A1800002104F12400FFF7F5FD0546CAE72E460C
:103A2800D1E7012635460AE0B3F5802FDDD0B3F59E
:103A3800A02FDAD0B3F5403FD7D00126354623680A
:103A480013F4804F30D0D4F8AC30B3F1005F44D0D9
:103A58001FD83BB1B3F1805F18D10121201DFFF7BA
:103A68004BFD0546002D3FD1494A936D23F0E043B5
:103A7800D4F8AC100B43936516E0012104F124003F
:103A8800FFF7C0FD0546B0E72E46D8E701263546C4
:103A98000AE0B3F1804FE5D0B3F1A04FE2D0B3F123
:103AA800405FDFD001263546236813F4004F09D064
:103AB800E36EB3F1805F19D0B3F1005F24D0D3B1C6
:103AC80001263546236813F0807F32D0636C032BC0
:103AD80059D8DFE803F026215226012104F12400F9
:103AE800FFF790FD0546BDE72E46DDE7284AD36A75
:103AF80043F40033D3626DB9254A136D23F0405364
:103B0800E16E0B431365DDE70121201DFFF7F4FC8F
:103B18000546F0E72E46D5E71D4AD36A43F400333D
:103B2800D3629DBB1A4AD36C23F00303616C0B4329
:103B3800D364236813F4800F2CD1236813F0010F8A
:103B480000F0A380A36F282B00F29D80DFE803F02C
:103B58008B9B9B9B9B9B9B9B869B9B9B9B9B9B9BD2
:103B6800949B9B9B9B9B9B9B8B9B9B9B9B9B9B9BB4
:103B78008B9B9B9B9B9B9B9B8B000221201DFFF794
:103B8800BBFC0546CDE701263546D2E72E46D0E7F1
:103B9800004402588F4A136843F48073136000F09E
:103BA8004DFE07468B4B1B6813F4807F05D100F050
:103BB80045FEC01B6428F5D90325002D4AD1864B44
:103BC8001B6FD4F8B020534013F4407F0CD0824BC5
:103BD8001A6F22F44072196F41F480311967196F16
:103BE80021F4803119671A67D4F8B030B3F5807FB3
:103BF80015D08DBBD4F8B03003F44072B2F5407FD5
:103C08001ED0754A136923F47C53136172490B6FF4
:103C1800D4F8B020C2F30B0213430B678DE700F012
:103C28000DFE07466C4B1B6F13F0020FE1D100F03D
:103C380005FEC01B41F288339842F3D90325D8E723
:103C48006548026922F47C52644901EA131313435C
:103C58000361DBE72E4670E72E466EE70121201D43
:103C6800FFF74AFC0546E5B95B4A536D23F0380374
:103C7800A16F0B43536508E0012104F12400FFF70D
:103C8800C1FC0546EFE701263546236813F0020F0D
:103C980016D0636F052B27D8DFE803F00A051F0A43
:103CA8000A0A2E46F1E70121201DFFF725FC0546EB
:103CB800EDB9494A536D23F00703616F0B43536510
:103CC800236813F0040F22D0D4F89030052B43D882
:103CD800DFE803F0140F3B141414012104F124004D
:103CE800FFF790FC0546E3E701263546E8E72E4650
:103CF800E6E70121201DFFF7FFFB05467DBB364A9D
:103D0800936D23F00703D4F890100B439365236851
:103D180013F0200F33D0D4F88C30B3F1005F4CD0BF
:103D280022D83BB1B3F1805F1BD10021201DFFF7E2
:103D3800E3FB0546002D47D1274A536D23F0E043A6
:103D4800D4F88C100B43536519E0012104F12400C9
:103D5800FFF758FC0546D1E701263546D7E72E463A
:103D6800D5E7012635460AE0B3F1804FE2D0B3F13A
:103D7800A04FDFD0B3F1405FDCD001263546236881
:103D880013F0400F37D0D4F89830B3F5006F52D005
:103D980026D83BB1B3F5806F18D10021201DFFF75D
:103DA800ABFB0546002D4DD10B4A936D23F4E05330
:103DB800D4F898100B4393651DE0022104F1240008
:103DC800FFF720FC0546B5E72E46D8E7012635461D
:103DD80011E000BF0048025800440258CFFFFF001E
:103DE800B3F5805FDED0B3F5A05FDBD0B3F5406FED
:103DF800D8D001263546236813F0800F32D0D4F886
:103E08009C30B3F5804F00F09D8020D83BB1B3F5CE
:103E1800005F19D10021201DFFF76EFB0546002D1C
:103E280040F09780A54A936D23F46043D4F89C1022
:103E38000B43936516E0022104F12400FFF7E2FB2F
:103E48000546AFE72E46D6E7012635460AE0B3F524
:103E5800004FE4D0B3F5204FE1D0B3F5C04FDED02A
:103E680001263546236813F0080F0CD0D4F88030AB
:103E7800B3F5805F6FD0914A536D23F44053D4F863
:103E880080100B435365236813F0100F0CD0D4F83F
:103E98009430B3F5807F67D0884A936D23F44073DC
:103EA800D4F894100B439365236813F4002F0BD0B8
:103EB800D4F8A030B3F5803F6ED0B3F5003F61D0A1
:103EC800002B5AD001263546236813F4802F0CD0D6
:103ED800D4F88430B3F5001F76D0B3F5401F69D00D
:103EE800B3F5801F61D001263546236813F4803F5F
:103EF80007D0E36C002B70D0B3F5803F7BD0012650
:103F08003546236813F0005F7DD1236813F4003F22
:103F180000F08680E36FB3F5807F00F0C6807CD91F
:103F2800B3F5007F03D0B3F5407F40F0BC80002D8F
:103F380040F0C180614A536D23F44073E16F0B4335
:103F480053656DE0022104F12400FFF75BFB054691
:103F580065E72E4686E7022104F12400FFF752FBAD
:103F6800002888D0012686E7022104F12400FFF703
:103F780049FB002890D001268EE70021201DFFF77D
:103F8800BBFA05467DB94D4A936D23F44033D4F806
:103F9800A0100B43936597E7022104F12400FFF773
:103FA80031FB0546EEE72E468EE7444AD36A43F4D2
:103FB8000033D3627DB9414A536D23F44013D4F8DA
:103FC80084100B43536590E7012104F12400FFF7A7
:103FD80019FB0546EEE72E4687E7384AD36A43F4CD
:103FE8000033D3626DB9354AD36C23F48033E16C66
:103FF8000B43D36485E70221201DFFF77DFA0546B0
:10400800F0E72E467DE7022104F12400FFF7FAFAD3
:1040180000283FF47AAF012677E7002B87D00126E6
:10402800236813F4801F06D0244A136D23F000433D
:10403800216F0B431365236813F0805F07D01F4A75
:10404800136923F48043D4F8B4100B431361236835
:1040580013F4001F06D0194A136D23F08073A16E64
:104068000B431365236813F0804F09D0134B1A696B
:1040780022F400421A611A69D4F8B8100A431A6186
:104088002368002B1CDB236813F4000F07D00B4AAE
:10409800536D23F44003D4F888100B43536506B1DD
:1040A80001263046F8BD0126BAE7044AD36A43F42C
:1040B8000033D3623BE72E46B2E700BF0044025804
:1040C800034AD36C23F04053216D0B43D364DAE7E2
:1040D8000044025808B5FFF7C9F9054B1B6AC3F33A
:1040E8000213044AD35C03F01F03D84008BD00BF85
:1040F80000440258D875000810B5774A916A946A46
:10410800C4F3053ED36AC3F3001CD36BC3F3CC03DB
:104118000CFB03F314F47C3F00F0D88001F003019A
:1041280007EE903AF8EE677A012965D0022900F087
:10413800B080E1B107EE10EAB8EE477A9FED676A02
:10414800C6EE076A644B9B6BC3F3080307EE103A8D
:10415800B8EE477A9FED626A67EE867A77EE277A3D
:10416800B7EE007A77EE877A66EEA76A60E01368A2
:1041780013F0200F23D011461268C2F3C102594B25
:10418800D34007EE103AB8EE477A06EE90EAB8EE5A
:10419800666AC7EE066A8B6BC3F3080307EE103A2C
:1041A800B8EE477A9FED4E6A67EE867A77EE277A01
:1041B800B7EE007A77EE877A66EEA76A38E007EE00
:1041C80010EAB8EE477A9FED486AC6EE076A424B96
:1041D8009B6BC3F3080307EE103AB8EE477A9FEDDE
:1041E800406A67EE867A77EE277AB7EE007A77EE3E
:1041F800877A66EEA76A1BE007EE10EAB8EE477A00
:104208009FED366AC6EE076A334B9B6BC3F3080310
:1042180007EE103AB8EE477A9FED316A67EE867A74
:1042280077EE277AB7EE007A77EE877A66EEA76A96
:10423800294A936BC3F3462307EE103AB8EE477A40
:10424800B7EE006A37EE067AC6EE877AFCEEE77AB2
:10425800C0ED007A936BC3F3064307EE103AB8EE4D
:10426800477A37EE067AC6EE877AFCEEE77AC0ED33
:10427800017A936BC3F3066307EE903AF8EE677A18
:1042880077EE867A86EEA77ABCEEC77A80ED027A58
:1042980010BD07EE10EAB8EE477A9FED146AC6EE35
:1042A800076A0D4B9B6BC3F3080307EE103AB8EE91
:1042B800477A9FED0B6A67EE867A77EE277AB7EE34
:1042C800007A77EE877A66EEA76AB1E70023036083
:1042D80043608360DCE700BF004402580024744A4E
:1042E800000000390090D0030024744C001BB74B29
:1042F80010B5774A916A946AC4F3055ED36AC3F32A
:10430800002C536CC3F3CC030CFB03F314F07C7F39
:1043180000F0D88001F0030107EE903AF8EE677AD2
:10432800012965D0022900F0B080E1B107EE10EA5A
:10433800B8EE477A9FED676AC6EE076A644B1B6C56
:10434800C3F3080307EE103AB8EE477A9FED626AA6
:1043580067EE867A77EE277AB7EE007A77EE877A75
:1043680066EEA76A60E0136813F0200F23D01146A9
:104378001268C2F3C102594BD34007EE103AB8EEA7
:10438800477A06EE90EAB8EE666AC7EE066A0B6CE4
:10439800C3F3080307EE103AB8EE477A9FED4E6A6A
:1043A80067EE867A77EE277AB7EE007A77EE877A25
:1043B80066EEA76A38E007EE10EAB8EE477A9FED96
:1043C800486AC6EE076A424B1B6CC3F3080307EE44
:1043D800103AB8EE477A9FED406A67EE867A77EE34
:1043E800277AB7EE007A77EE877A66EEA76A1BE03F
:1043F80007EE10EAB8EE477A9FED366AC6EE076A0E
:10440800334B1B6CC3F3080307EE103AB8EE477A38
:104418009FED316A67EE867A77EE277AB7EE007AF3
:1044280077EE877A66EEA76A294A136CC3F34623A8
:1044380007EE103AB8EE477AB7EE006A37EE067A1A
:10444800C6EE877AFCEEE77AC0ED007A136CC3F308
:10445800064307EE103AB8EE477A37EE067AC6EE0C
:10446800877AFCEEE77AC0ED017A136CC3F3066332
:1044780007EE903AF8EE677A77EE867A86EEA77AB4
:10448800BCEEC77A80ED027A10BD07EE10EAB8EEEE
:10449800477A9FED146AC6EE076A0D4B1B6CC3F38F
:1044A800080307EE103AB8EE477A9FED0B6A67EEFD
:1044B800867A77EE277AB7EE007A77EE877A66EE15
:1044C800A76AB1E70023036043608360DCE700BFAD
:1044D800004402580024744A000000390090D003B8
:1044E8000024744C001BB74BF0B583B000236BE07D
:1044F80085685E000324B44025EA0405CC68B4400E
:104508002C438460446824EA0C0C4C68C4F30014FF
:104518009C4044EA0C04446068E0DD08083550F823
:10452800256003F007044FEA840C0F2404FA0CF406
:1045380026EA040E0C6904FA0CF444EA0E0440F866
:1045480025406BE0092400E0002404FA0EF42C4313
:104558000CF1020C694D45F82C404FF0B044256829
:10456800D44325EA02064F6817F4801F01D042EAB7
:1045780005064FF0B0452E606D6804EA05064F68E1
:1045880017F4001F01D042EA05064FF0B0456E60EF
:10459800D5F8845004EA05064F6817F4003F01D0A7
:1045A80042EA05064FF0B045C5F88460D5F880505A
:1045B8002C404E6816F4803F01D042EA05044FF0C3
:1045C800B042C2F8804001330A6832FA03F400F0BE
:1045D80092804FF0010C0CFA03FC1CEA0202F2D0A4
:1045E8004C6804F00304013C012C81D94C6804F0A8
:1045F8000304032C0CD0C4685D004FF0030C0CFAC4
:1046080005FC24EA0C0C8C68AC4044EA0C04C46039
:104618004C6804F00304022C3FF47FAF04684FEAAF
:10462800430E4FF0030C0CFA0EFC24EA0C0C4C68F9
:1046380004F0030404FA0EF444EA0C0404604C6821
:1046480014F4403FBFD02E4CD4F8F45045F0020586
:10465800C4F8F450D4F8F44004F002040194019C26
:104668004FEA930C0CF10205244C54F8255003F042
:1046780003044FEA840E0F2404FA0EF425EA040515
:10468800204CA0423FF460AF04F58064A04222D0E1
:1046980004F58064A04220D004F58064A0421ED0B6
:1046A80004F58064A0421CD004F58064A0421AD0AE
:1046B80004F58064A04218D004F58064A04216D0A6
:1046C80004F58064A04214D004F58064A0423FF44D
:1046D80039AF0A2439E7012437E7022435E70324F0
:1046E80033E7042431E705242FE706242DE70724C0
:1046F8002BE7082429E703B0F0BD00BF00040058E9
:1047080000440258000002580369194201D00120F0
:104718007047002070470AB18161704709048161C0
:1047280070470000134BDB6813F0040F07D1114BDF
:10473800DB6803F0070383421AD00120704710B5E5
:104748000C4AD36823F007031843D06000F076F8CA
:104758000446084B5B6813F4005F07D100F06EF85D
:10476800001BB0F57A7FF4D9012000E0002010BDCD
:104778000020704700480258104B1B780BB90120E5
:10478800704710B504464FF47A70B0FBF3F30C4A47
:104798001068B0FBF3F0FEF7D7F868B90F2C01D911
:1047A80001200AE0002221464FF0FF30FEF796F87C
:1047B800044B1C60002000E0012010BD7420002084
:1047C8006C2000207820002010B50320FEF774F834
:1047D800FEF708FC0F498B69C3F303230E4AD35C29
:1047E80003F01F03D8408B6903F00F03D35C03F079
:1047F8001F0320FA03F3094A1360094B18600F20BE
:10480800FFF7BAFF10B10124204610BD0446FDF79A
:104818003DFEF9E700440258D875000870200020D2
:104828006C200020034B1B78034A11680B4413606B
:10483800704700BF74200020A8240020014B18688E
:10484800704700BFA824002038B50446FFF7F6FFDC
:104858000546B4F1FF3F02D0044B1B781C44FFF718
:10486800EDFF401BA042FAD338BD00BF74200020E2
:10487800014B1868000C70470010005C03689A69C7
:1048880012F0020F01D000229A6203689A6912F0AE
:10489800010F03D19A6942F001029A61704710B47E
:1048A800019CC1F3090141EA02411943214321F066
:1048B800004102685368640D04F4806444F07F7416
:1048C80044F4583444F47F7444F0030423EA0404A1
:1048D800214351605DF8044B70472DE9F0410446CF
:1048E80003689F6917F010074ED00E4690461022B5
:1048F800DA6100252368986910F0200F3DD1002D5A
:104908003BD1B6F1FF3FF5D0FFF798FFA0EB0800C9
:10491800B04201D8002EEDD121684A6802F48042E5
:1049280094F84230DBB2886910F4004F04D0203B81
:1049380018BF012302B9C3B923689B6913F0200F7C
:10494800D8D1FFF77BFFA0EB08001928F4D9636CD6
:1049580043F020036364202384F84130002384F863
:10496800423084F840300125E6E74B6843F4804341
:104978004B60FFF763FF8046DEE7002D40D1202221
:10498800DA610427012500E000252268936913F401
:10499800807F05D047F001074FF48071D161012570
:1049A80013F4806F06D047F0080722684FF480613F
:1049B800D161012513F4007F24D047F00207236852
:1049C8004FF40072DA6101252046FFF757FF22688D
:1049D800536823F0FF7323F48B3323F4FF7323F01E
:1049E80001035360636C1F436764202384F84130DC
:1049F800002384F8423084F840302846BDE8F0812E
:104A08000427C2E7002DF8D0DEE770B504460D464E
:104A1800164623689B6913F0020F1DD132462946BA
:104A28002046FFF75AFFC8B9B5F1FF3FF1D0FFF7AD
:104A380005FF801BA84201D8002DEAD1636C43F022
:104A480020036364202384F84130002384F8423033
:104A580084F84030012000E0002070BD0120FCE710
:104A68002DE9F0410646884617461D463468A46974
:104A780038EA04030CBF4FF0010C4FF0000CBC45A2
:104A880018D1B5F1FF3FF1D0FFF7D8FE069BC01A49
:104A9800A84201D8002DE9D1736C43F02003736458
:104AA800202386F84130002386F8423086F84030CB
:104AB800012000E00020BDE8F08100002DE9F04170
:104AC80082B0044690461D46089E099F194B0093E4
:104AD8004FF08073EAB2FFF7E2FE3A4631462046CD
:104AE800FFF793FFF8B9012D0ED123685FFA88F21A
:104AF8009A6200973346002280212046FFF7B0FFD4
:104B0800A8B902B0BDE8F08123684FEA18229A627A
:104B18003A4631462046FFF778FF30B923685FFAF6
:104B280088F29A62E5E70120EBE70120E9E7012036
:104B3800E7E700BF002000802DE9F04182B004467D
:104B480090461D46089E099F184B00930023EAB221
:104B5800FFF7A5FE3A4631462046FFF756FFF8B95B
:104B6800012D0ED123685FFA88F29A6200973346C6
:104B7800002240212046FFF773FFA8B902B0BDE824
:104B8800F08123684FEA18229A623A463146204655
:104B9800FFF73BFF30B923685FFA88F29A62E5E7CE
:104BA8000120EBE70120E9E70120E7E7002000808A
:104BB80070B505460C4616462B689B6913F0200F06
:104BC8001AD1324621462846FFF787FEB0B9FFF7CB
:104BD80035FE801BA04201D8002CEDD16B6C43F050
:104BE80020036B64202385F84130002385F8423088
:104BF80085F84030012070BD0020FCE70120FAE76D
:104C0800002857D010B5044690F84130002B41D009
:104C1800242384F841302268136823F001031360C9
:104C28006368226823F0706313612268936823F431
:104C380000439360E368012B31D0A368226843F4F2
:104C480004439360E368022B2FD0226851681A4B03
:104C58000B4353602268D36823F40043D36023696D
:104C680062691343A169226843EA0123D360E369B7
:104C7800216A22680B4313602268136843F001031A
:104C8800136000206064202384F84130206384F896
:104C9800420010BD80F84030FDF70AFCB8E7A36871
:104CA800226843F400439360CCE723684FF4006222
:104CB8005A60CAE701207047008000022DE9F04FD2
:104CC80083B00D46BDF834A00E9F90F84110C9B2CC
:104CD800202940F0BC800446904699460C9BBAF1C6
:104CE800000F18BF002B16D090F84030012B00F0B1
:104CF800B2804FF0010B80F840B0FFF79FFD0646E9
:104D0800009019235A464FF400412046FFF7A8FEA9
:104D180030B101209CE04FF400734364012097E018
:104D2800212384F84130402384F84230002363640F
:104D38000C9A6262A4F82AA06363019600974B4616
:104D4800424629462046FFF7B9FE70B9638D9BB2EB
:104D5800FF2B0FD9FF222285002300934FF0807389
:104D680029462046FFF79BFD21E0002384F84030C8
:104D780058466DE0628D92B22285002300934FF071
:104D88000073D2B229462046FFF789FD0FE0628DF5
:104D980092B22285002300934FF00073D2B22946C5
:104DA8002046FFF77CFD638D9BB2002B33D0324643
:104DB80039462046FFF729FE00284ED1626A23684B
:104DC80012789A62636A01336362638D9BB2013B16
:104DD8009BB26385238D013B9BB22385628D92B282
:104DE800002AE0D0002BDED100963B46002280212D
:104DF8002046FFF735FE90BB638D9BB2FF2BC6D9CB
:104E0800FF222285002300934FF080732946204615
:104E1800FFF745FDC7E7324639462046FFF7C8FE8B
:104E2800F8B923682022DA6121684B6823F0FF7300
:104E380023F48B3323F4FF7323F001034B6084F8CE
:104E48004120002384F8423084F8403000E00220FA
:104E580003B0BDE8F08F0220FAE70120F8E701204F
:104E6800F6E70120F4E700002DE9F04F83B00D4686
:104E7800BDF834A00E9F90F84110C9B2202940F027
:104E8800BD800446904699460C9BBAF1000F18BFA6
:104E9800002B16D090F84030012B00F0B3804FF073
:104EA800010B80F840B0FFF7C9FC064600901923B3
:104EB8005A464FF400412046FFF7D2FD30B1012099
:104EC8009DE04FF400734364012098E0222384F8A6
:104ED8004130402384F84230002363640C9A6262B4
:104EE800A4F82AA06363019600974B4642462946D8
:104EF8002046FFF721FE70B9638D9BB2FF2B0FD9B7
:104F0800FF222285434B00934FF0807329462046A9
:104F1800FFF7C5FC21E0002384F8403058466EE0D6
:104F2800628D92B222853B4B00934FF00073D2B250
:104F380029462046FFF7B3FC0FE0628D92B2228526
:104F4800002300934FF00073D2B229462046FFF7A2
:104F5800A6FC638D9BB2002B34D000963B46002202
:104F680004212046FFF77CFD00284DD123685A6AAA
:104F7800636A1A70636A01336362228D013A92B2DE
:104F88002285638D9BB2013B9BB26385638D9BB287
:104F9800002BDED0002ADCD100963B46802120463B
:104FA800FFF75EFD90BB638D9BB2FF2BC5D9FF2237
:104FB8002285002300934FF0807329462046FFF78F
:104FC8006EFCC6E7324639462046FFF7F1FDF8B9D0
:104FD80023682022DA6121684B6823F0FF7323F4E9
:104FE8008B3323F4FF7323F001034B6084F84120D3
:104FF800002384F8423084F8403000E0022003B0F7
:10500800BDE8F08F0220FAE70120F8E70120F6E773
:105018000120F4E70024008090F84130DBB2202B17
:1050280024D190F84030012B22D0012380F8403061
:10503800242380F841300268136823F001031360C9
:105048000268136823F480531360026813681943D5
:1050580011600268136843F001031360202380F88D
:105068004130002380F840301846704702207047CE
:105078000220704790F84130DBB2202B22D190F803
:105088004030012B20D0012380F84030242380F8C1
:1050980041300268136823F0010313600268136843
:1050A80023F4706343EA012111600268136843F036
:1050B80001031360202380F84130002380F840303A
:1050C800184670470220704702207047F0B4036A00
:1050D80023F001030362036A466884691F4A224079
:1050E8000D68154323F002038C6823431C4A1D4CAA
:1050F800A04218BF90420CBF012200220CD004F538
:105108008044A04214BF00240124174FB84203D0A2
:1051180014B9164CA04205D123F00803CC682343E8
:1051280023F004035AB9124A904214BF0022012204
:105138000D4CA04203D012B90C4A904207D126F474
:10514800407C4A6942EA0C0C8E6946EA0C064660C5
:1051580085614A6842630362F0BC70478CFFFEFFBA
:1051680000000140000401400040014000480140A7
:105178000044014070B4036A23F480730362036A35
:105188004568C4691A4A22400E68164323F400731E
:105198008A6843EA0223174A174CA04218BF904274
:1051A8000CBF0122002206D123F40063CC6843EA35
:1051B800042323F480635AB9104A904214BF002292
:1051C80001220F4CA04203D012B90E4A904207D1D7
:1051D80025F4405C4A694CEA021C8D694CEA0515C5
:1051E8004560C6614A68C263036270BC704700BF0D
:1051F8008CFFFEFF00000140000401400044014014
:10520800004001400048014070B4036A23F4805311
:105218000362036A4468C569144A2A400D6842EA71
:10522800052223F400538D6843EA0533104E114DCF
:10523800A84218BFB0420DD005F58045A84214BF5A
:105248000025012506F58046B04203D015B90A4D60
:10525800A84204D124F480444D6944EA851444608A
:10526800C2614A680264036270BC7047FF8CFFFE2B
:1052780000000140000401400048014070B4036A86
:1052880023F480330362036A4268456D144C2C4052
:105298000D682C4323F400338D6843EA0543114E0F
:1052A800114DA84218BFB0420DD005F58045A8425F
:1052B80014BF0025012506F58046B04203D015B974
:1052C8000A4DA84204D122F480324D6942EA0522EF
:1052D800426044654A688265036270BC704700BFDB
:1052E8008FFFFEFF0000014000040140004801401C
:1052F80070B4036A23F480130362036A4468456D3B
:10530800144A2A400D6842EA052223F400138D68E6
:1053180043EA0553104E114DA84218BFB0420DD0B4
:1053280005F58045A84214BF0025012506F58046ED
:10533800B04203D015B90A4DA84204D124F4802400
:105348004D6944EA8524446042654A68C26503623F
:1053580070BC7047FF8FFFFE000001400004014051
:105368000048014010B4036A046A24F0010404628E
:10537800846924F0F00C4CEA021223F00A030B4370
:10538800826103625DF8044B704710B4046A24F02C
:10539800100404628469036A24F4704C4CEA0232F3
:1053A80023F0A00343EA0113826103625DF8044B12
:1053B800704700008268034B13400B4343F0070318
:1053C800836070478FFFCFFF7047000030B50368D8
:1053D800394A904214BF4FF0000E4FF0010EB0F161
:1053E800804F14BF72464EF00102AAB9334CA04256
:1053F80014BF00240124324DA8420DD064B904F131
:10540800804404F58234A04214BF0024012405F529
:105418000065A84200D01CB123F070034C682343F8
:1054280012BB264A904214BF00220122244CA042FB
:105438001AD0CAB902F1804202F58232904214BFF2
:105448000022012204F50064A0420DD062B91D4A71
:10545800904214BF0022012204F59A34A04203D0DE
:1054680012B9194A904204D123F4407CCB6843EA2C
:105478000C0323F080034A69134303608A68C262FD
:105488000A688262114A904214BF73464EF00103C3
:1054980063B90C4B984214BF0023012302F57052E4
:1054A800904203D013B9084B984201D10B690363AA
:1054B8000123436130BD00BF0000014000080040E7
:1054C800000400400044014000480140000401403D
:1054D80060B310B5044690F83D3013B3022384F846
:1054E8003D30214651F8040BFFF770FF012384F883
:1054F800483084F83E3084F83F3084F8403084F8EF
:10550800413084F8423084F8433084F8443084F8D9
:10551800453084F8463084F8473084F83D30002020
:1055280010BD80F83C30FDF799F8D7E701207047A7
:1055380060B310B5044690F83D3013B3022384F8E5
:105548003D30214651F8040BFFF740FF012384F852
:10555800483084F83E3084F83F3084F8403084F88E
:10556800413084F8423084F8433084F8443084F879
:10557800453084F8463084F8473084F83D300020C0
:1055880010BD80F83C30FFF71FFFD7E701207047B8
:1055980070B4036A23F010030362036A45688469E0
:1055A8001A4A22400E6842EA062623F020038A6837
:1055B80043EA0213164A174CA04218BF90420CBF88
:1055C8000122002206D123F08003CC6843EA0413A9
:1055D80023F040035AB9104A904214BF0022012216
:1055E8000E4CA04203D012B90D4A904207D125F4BF
:1055F800406C4A694CEA820C8D694CEA8505456025
:1056080086614A688263036270BC7047FF8CFFFE44
:1056180000000140000401400044014000400140F6
:105628000048014038B590F83C30012B00F09580D7
:1056380004460D46012380F83C30142A00F2888085
:10564800DFE802F00B8686861F8686863486868685
:10565800488686865D86868671000068FFF736FD77
:105668002268936943F0080393612268936923F0E1
:10567800040393612268936929690B4393610020AD
:1056880067E00068FFF784FF2268936943F40063CA
:1056980093612268936923F4806393612268936914
:1056A800296943EA01239361002052E00068FFF76B
:1056B80061FD2268D36943F00803D3612268D36986
:1056C80023F00403D3612268D36929690B43D361AA
:1056D80000203EE00068FFF797FD2268D36943F495
:1056E8000063D3612268D36923F48063D36122689D
:1056F800D369296943EA0123D361002029E00068BE
:10570800FFF7BCFD2268536D43F008035365226818
:10571800536D23F0040353652268536D29690B43C5
:105728005365002015E00068FFF7E2FD2268536D1D
:1057380043F4006353652268536D23F48063536513
:105748002268536D296943EA01235365002000E06C
:105758000120002384F83C3038BD0220FCE710B457
:10576800846824F47F4C42EA03220A4342EA0C028A
:1057780082605DF8044B704790F83C30012B00F0D4
:105788008F8010B50446012380F83C30022380F84E
:105798003D3002689068434B034093600B68702B60
:1057A80055D031D8502B6CD00CD9602B2AD1CA686F
:1057B80049682068FFF7E9FD60212068FFF7FAFDD6
:1057C800002035E0402B0AD1CA6849682068FFF7F5
:1057D800C9FD40212068FFF7EDFD002028E05BD8D7
:1057E800202B07D003D9302B04D0012020E00BB1A7
:1057F800102B05D119462068FFF7DCFD002017E0C3
:10580800012015E0012013E0B3F5005F2CD00BD97F
:10581800254A9342EED012D9244A9342EAD0103254
:105828009342E7D0012003E0B3F5805F36D1002032
:10583800012384F83D30002384F83C3010BDB3F5D3
:10584800801FD7D0B3F1101FD4D00120F0E7CB6868
:105858004A6889682068FFF782FF2268936843F0E6
:10586800770393600020E3E7CB684A68896820687B
:10587800FFF775FF2268936843F480439360002024
:10588800D6E7CA6849682068FFF76CFD5021206890
:10589800FFF790FD0020CBE70120C9E70120C7E70B
:1058A800022070478800CEFF200010003000100052
:1058B80090F83C30012B45D070B4012380F83C307F
:1058C800022380F83D3003685A689C681E4E1F4DBD
:1058D800AB4218BFB34203D122F470024D682A4389
:1058E80022F070020D682A435A600368164AB3F121
:1058F800804F18BF934217D0A2F57C42934213D031
:1059080002F5806293420FD002F5806293420BD079
:1059180002F57842934207D0A2F56C42934203D035
:1059280002F59432934204D124F080048A68144327
:105938009C60012380F83D30002380F83C301846F5
:1059480070BC70470220704700000140000401400D
:1059580070B586B0044601688368026913434269DA
:105968001343C26913430868884A024013430B6013
:105978002268536823F44053E1680B435360A169DC
:105988002268834B9A4201D0236A19439068814B5D
:1059980003400B4393602268D36A23F00F03616AC4
:1059A8000B43D36222687C4B9A4221D07B4B9A42AC
:1059B80000F08C807A4B9A4200F0A280794B9A4290
:1059C80000F0B580784B9A4200F0C880774B9A4235
:1059D80000F0F480764B9A4200F01981754B9A4298
:1059E80000F02C816A4B9A4200F03F81802333E01B
:1059F800714B5B6D03F03803282B65D8DFE813F093
:105A080029006400640064006400640064006400A9
:105A18004D01640064006400640064006400640074
:105A28002B00640064006400640064006400640087
:105A38005E00640064006400640064006400640044
:105A48006000640064006400640064006400640032
:105A58006200012300E008234D498A4200F02F81AB
:105A6800E069B0F5004F00F0AF81202B00F207820B
:105A7800202B00F25182DFE813F01E0224024F02AD
:105A88004F0227024F024F024F022C024F024F02D1
:105A98004F024F024F024F024F0231024F024F0294
:105AA8004F024F024F024F024F024F024F024F0266
:105AB8004F024F024F024F024F023D021023CBE725
:105AC8002023C9E74023C7E78023C5E73A4B5B6D2E
